{
  "contractName": "PockyPair",
  "abi": [
    {
      "inputs": [],
      "payable": false,
      "stateMutability": "nonpayable",
      "type": "constructor"
    },
    {
      "anonymous": false,
      "inputs": [
        {
          "indexed": true,
          "internalType": "address",
          "name": "_owner",
          "type": "address"
        },
        {
          "indexed": true,
          "internalType": "address",
          "name": "_spender",
          "type": "address"
        },
        {
          "indexed": false,
          "internalType": "uint256",
          "name": "_value",
          "type": "uint256"
        }
      ],
      "name": "Approval",
      "type": "event"
    },
    {
      "anonymous": false,
      "inputs": [
        {
          "indexed": true,
          "internalType": "address",
          "name": "_from",
          "type": "address"
        },
        {
          "indexed": true,
          "internalType": "address",
          "name": "_to",
          "type": "address"
        },
        {
          "indexed": false,
          "internalType": "uint256",
          "name": "_value",
          "type": "uint256"
        }
      ],
      "name": "Transfer",
      "type": "event"
    },
    {
      "constant": true,
      "inputs": [],
      "name": "MINIMUM_LIQUIDITY",
      "outputs": [
        {
          "internalType": "uint256",
          "name": "",
          "type": "uint256"
        }
      ],
      "payable": false,
      "stateMutability": "view",
      "type": "function"
    },
    {
      "constant": true,
      "inputs": [
        {
          "internalType": "address",
          "name": "",
          "type": "address"
        },
        {
          "internalType": "address",
          "name": "",
          "type": "address"
        }
      ],
      "name": "allowance",
      "outputs": [
        {
          "internalType": "uint256",
          "name": "",
          "type": "uint256"
        }
      ],
      "payable": false,
      "stateMutability": "view",
      "type": "function"
    },
    {
      "constant": false,
      "inputs": [
        {
          "internalType": "address",
          "name": "_spender",
          "type": "address"
        },
        {
          "internalType": "uint256",
          "name": "_value",
          "type": "uint256"
        }
      ],
      "name": "approve",
      "outputs": [
        {
          "internalType": "bool",
          "name": "",
          "type": "bool"
        }
      ],
      "payable": false,
      "stateMutability": "nonpayable",
      "type": "function"
    },
    {
      "constant": true,
      "inputs": [
        {
          "internalType": "address",
          "name": "",
          "type": "address"
        }
      ],
      "name": "balanceOf",
      "outputs": [
        {
          "internalType": "uint256",
          "name": "",
          "type": "uint256"
        }
      ],
      "payable": false,
      "stateMutability": "view",
      "type": "function"
    },
    {
      "constant": true,
      "inputs": [],
      "name": "decimals",
      "outputs": [
        {
          "internalType": "uint8",
          "name": "",
          "type": "uint8"
        }
      ],
      "payable": false,
      "stateMutability": "view",
      "type": "function"
    },
    {
      "constant": true,
      "inputs": [],
      "name": "factory",
      "outputs": [
        {
          "internalType": "address",
          "name": "",
          "type": "address"
        }
      ],
      "payable": false,
      "stateMutability": "view",
      "type": "function"
    },
    {
      "constant": true,
      "inputs": [],
      "name": "name",
      "outputs": [
        {
          "internalType": "string",
          "name": "",
          "type": "string"
        }
      ],
      "payable": false,
      "stateMutability": "view",
      "type": "function"
    },
    {
      "constant": true,
      "inputs": [],
      "name": "symbol",
      "outputs": [
        {
          "internalType": "string",
          "name": "",
          "type": "string"
        }
      ],
      "payable": false,
      "stateMutability": "view",
      "type": "function"
    },
    {
      "constant": true,
      "inputs": [],
      "name": "token0",
      "outputs": [
        {
          "internalType": "address",
          "name": "",
          "type": "address"
        }
      ],
      "payable": false,
      "stateMutability": "view",
      "type": "function"
    },
    {
      "constant": true,
      "inputs": [],
      "name": "token1",
      "outputs": [
        {
          "internalType": "address",
          "name": "",
          "type": "address"
        }
      ],
      "payable": false,
      "stateMutability": "view",
      "type": "function"
    },
    {
      "constant": true,
      "inputs": [],
      "name": "totalSupply",
      "outputs": [
        {
          "internalType": "uint256",
          "name": "",
          "type": "uint256"
        }
      ],
      "payable": false,
      "stateMutability": "view",
      "type": "function"
    },
    {
      "constant": false,
      "inputs": [
        {
          "internalType": "address",
          "name": "_to",
          "type": "address"
        },
        {
          "internalType": "uint256",
          "name": "_value",
          "type": "uint256"
        }
      ],
      "name": "transfer",
      "outputs": [
        {
          "internalType": "bool",
          "name": "",
          "type": "bool"
        }
      ],
      "payable": false,
      "stateMutability": "nonpayable",
      "type": "function"
    },
    {
      "constant": false,
      "inputs": [
        {
          "internalType": "address",
          "name": "_from",
          "type": "address"
        },
        {
          "internalType": "address",
          "name": "_to",
          "type": "address"
        },
        {
          "internalType": "uint256",
          "name": "_value",
          "type": "uint256"
        }
      ],
      "name": "transferFrom",
      "outputs": [
        {
          "internalType": "bool",
          "name": "",
          "type": "bool"
        }
      ],
      "payable": false,
      "stateMutability": "nonpayable",
      "type": "function"
    },
    {
      "constant": true,
      "inputs": [],
      "name": "getReserves",
      "outputs": [
        {
          "internalType": "uint112",
          "name": "_reserve0",
          "type": "uint112"
        },
        {
          "internalType": "uint112",
          "name": "_reserve1",
          "type": "uint112"
        },
        {
          "internalType": "uint32",
          "name": "_blockTimestampLast",
          "type": "uint32"
        }
      ],
      "payable": false,
      "stateMutability": "view",
      "type": "function"
    },
    {
      "constant": false,
      "inputs": [
        {
          "internalType": "address",
          "name": "_token0",
          "type": "address"
        },
        {
          "internalType": "address",
          "name": "_token1",
          "type": "address"
        }
      ],
      "name": "initialize",
      "outputs": [],
      "payable": false,
      "stateMutability": "nonpayable",
      "type": "function"
    },
    {
      "constant": false,
      "inputs": [
        {
          "internalType": "address",
          "name": "to",
          "type": "address"
        }
      ],
      "name": "mint",
      "outputs": [
        {
          "internalType": "uint256",
          "name": "liquidity",
          "type": "uint256"
        }
      ],
      "payable": false,
      "stateMutability": "nonpayable",
      "type": "function"
    }
  ],
  "bytecode": "0x60806040526040518060400160405280600581526020017f506f636b7900000000000000000000000000000000000000000000000000000081525060009080519060200190620000519291906200015c565b506040518060400160405280600381526020017f504b590000000000000000000000000000000000000000000000000000000000815250600190805190602001906200009f9291906200015c565b506012600260006101000a81548160ff021916908360ff1602179055506000600355348015620000ce57600080fd5b50600354600460003373ffffffffffffffffffffffffffffffffffffffff1673ffffffffffffffffffffffffffffffffffffffff1681526020019081526020016000208190555033600660006101000a81548173ffffffffffffffffffffffffffffffffffffffff021916908373ffffffffffffffffffffffffffffffffffffffff1602179055506200020b565b828054600181600116156101000203166002900490600052602060002090601f016020900481019282601f106200019f57805160ff1916838001178555620001d0565b82800160010185558215620001d0579182015b82811115620001cf578251825591602001919060010190620001b2565b5b509050620001df9190620001e3565b5090565b6200020891905b8082111562000204576000816000905550600101620001ea565b5090565b90565b61119c806200021b6000396000f3fe608060405234801561001057600080fd5b50600436106101005760003560e01c80636a62784211610097578063ba9a7a5611610066578063ba9a7a5614610575578063c45a015514610593578063d21220a7146105dd578063dd62ed3e1461062757610100565b80636a627842146103dc57806370a082311461043457806395d89b411461048c578063a9059cbb1461050f57610100565b806318160ddd116100d357806318160ddd146102b057806323b872dd146102ce578063313ce56714610354578063485cc9551461037857610100565b806306fdde03146101055780630902f1ac14610188578063095ea7b3146102005780630dfe168114610266575b600080fd5b61010d61069f565b6040518080602001828103825283818151815260200191508051906020019080838360005b8381101561014d578082015181840152602081019050610132565b50505050905090810190601f16801561017a5780820380516001836020036101000a031916815260200191505b509250505060405180910390f35b61019061073d565b60405180846dffffffffffffffffffffffffffff166dffffffffffffffffffffffffffff168152602001836dffffffffffffffffffffffffffff166dffffffffffffffffffffffffffff1681526020018263ffffffff1663ffffffff168152602001935050505060405180910390f35b61024c6004803603604081101561021657600080fd5b81019080803573ffffffffffffffffffffffffffffffffffffffff1690602001909291908035906020019092919050505061079a565b604051808215151515815260200191505060405180910390f35b61026e610946565b604051808273ffffffffffffffffffffffffffffffffffffffff1673ffffffffffffffffffffffffffffffffffffffff16815260200191505060405180910390f35b6102b861096c565b6040518082815260200191505060405180910390f35b61033a600480360360608110156102e457600080fd5b81019080803573ffffffffffffffffffffffffffffffffffffffff169060200190929190803573ffffffffffffffffffffffffffffffffffffffff16906020019092919080359060200190929190505050610972565b604051808215151515815260200191505060405180910390f35b61035c610cab565b604051808260ff1660ff16815260200191505060405180910390f35b6103da6004803603604081101561038e57600080fd5b81019080803573ffffffffffffffffffffffffffffffffffffffff169060200190929190803573ffffffffffffffffffffffffffffffffffffffff169060200190929190505050610cbe565b005b61041e600480360360208110156103f257600080fd5b81019080803573ffffffffffffffffffffffffffffffffffffffff169060200190929190505050610e07565b6040518082815260200191505060405180910390f35b6104766004803603602081101561044a57600080fd5b81019080803573ffffffffffffffffffffffffffffffffffffffff169060200190929190505050610e1d565b6040518082815260200191505060405180910390f35b610494610e35565b6040518080602001828103825283818151815260200191508051906020019080838360005b838110156104d45780820151818401526020810190506104b9565b50505050905090810190601f1680156105015780820380516001836020036101000a031916815260200191505b509250505060405180910390f35b61055b6004803603604081101561052557600080fd5b81019080803573ffffffffffffffffffffffffffffffffffffffff16906020019092919080359060200190929190505050610ed3565b604051808215151515815260200191505060405180910390f35b61057d61108f565b6040518082815260200191505060405180910390f35b61059b611095565b604051808273ffffffffffffffffffffffffffffffffffffffff1673ffffffffffffffffffffffffffffffffffffffff16815260200191505060405180910390f35b6105e56110bb565b604051808273ffffffffffffffffffffffffffffffffffffffff1673ffffffffffffffffffffffffffffffffffffffff16815260200191505060405180910390f35b6106896004803603604081101561063d57600080fd5b81019080803573ffffffffffffffffffffffffffffffffffffffff169060200190929190803573ffffffffffffffffffffffffffffffffffffffff1690602001909291905050506110e1565b6040518082815260200191505060405180910390f35b60008054600181600116156101000203166002900480601f0160208091040260200160405190810160405280929190818152602001828054600181600116156101000203166002900480156107355780601f1061070a57610100808354040283529160200191610735565b820191906000526020600020905b81548152906001019060200180831161071857829003601f168201915b505050505081565b6000806000600960009054906101000a90046dffffffffffffffffffffffffffff1692506009600e9054906101000a90046dffffffffffffffffffffffffffff1691506009601c9054906101000a900463ffffffff169050909192565b600081600460003373ffffffffffffffffffffffffffffffffffffffff1673ffffffffffffffffffffffffffffffffffffffff168152602001908152602001600020541015610851576040517f08c379a00000000000000000000000000000000000000000000000000000000081526004018080602001828103825260138152602001807f45524332303a20494e53554646494349454e540000000000000000000000000081525060200191505060405180910390fd5b81600560003373ffffffffffffffffffffffffffffffffffffffff1673ffffffffffffffffffffffffffffffffffffffff16815260200190815260200160002060008573ffffffffffffffffffffffffffffffffffffffff1673ffffffffffffffffffffffffffffffffffffffff168152602001908152602001600020600082825401925050819055508273ffffffffffffffffffffffffffffffffffffffff163373ffffffffffffffffffffffffffffffffffffffff167f8c5be1e5ebec7d5bd14f71427d1e84f3dd0314c0f7b2291e5b200ac8c7c3b925846040518082815260200191505060405180910390a392915050565b600760009054906101000a900473ffffffffffffffffffffffffffffffffffffffff1681565b60035481565b600081600460008673ffffffffffffffffffffffffffffffffffffffff1673ffffffffffffffffffffffffffffffffffffffff168152602001908152602001600020541015610a29576040517f08c379a000000000000000000000000000000000000000000000000000000000815260040180806020018281038252601b8152602001807f45524332303a20494e53554646494349454e545f42414c414e4345000000000081525060200191505060405180910390fd5b81600560008673ffffffffffffffffffffffffffffffffffffffff1673ffffffffffffffffffffffffffffffffffffffff16815260200190815260200160002060003373ffffffffffffffffffffffffffffffffffffffff1673ffffffffffffffffffffffffffffffffffffffff168152602001908152602001600020541015610b1b576040517f08c379a000000000000000000000000000000000000000000000000000000000815260040180806020018281038252601d8152602001807f45524332303a20494e53554646494349454e545f414c4c4f57414e434500000081525060200191505060405180910390fd5b81600460008673ffffffffffffffffffffffffffffffffffffffff1673ffffffffffffffffffffffffffffffffffffffff1681526020019081526020016000206000828254039250508190555081600560008673ffffffffffffffffffffffffffffffffffffffff1673ffffffffffffffffffffffffffffffffffffffff16815260200190815260200160002060003373ffffffffffffffffffffffffffffffffffffffff1673ffffffffffffffffffffffffffffffffffffffff1681526020019081526020016000206000828254039250508190555081600460008573ffffffffffffffffffffffffffffffffffffffff1673ffffffffffffffffffffffffffffffffffffffff168152602001908152602001600020600082825401925050819055508273ffffffffffffffffffffffffffffffffffffffff168473ffffffffffffffffffffffffffffffffffffffff167fddf252ad1be2c89b69c2b068fc378daa952ba7f163c4a11628f55a4df523b3ef846040518082815260200191505060405180910390a39392505050565b600260009054906101000a900460ff1681565b600660009054906101000a900473ffffffffffffffffffffffffffffffffffffffff1673ffffffffffffffffffffffffffffffffffffffff163373ffffffffffffffffffffffffffffffffffffffff1614610d81576040517f08c379a000000000000000000000000000000000000000000000000000000000815260040180806020018281038252600f8152602001807f504149523a20464f5242494444454e000000000000000000000000000000000081525060200191505060405180910390fd5b81600760006101000a81548173ffffffffffffffffffffffffffffffffffffffff021916908373ffffffffffffffffffffffffffffffffffffffff16021790555080600860006101000a81548173ffffffffffffffffffffffffffffffffffffffff021916908373ffffffffffffffffffffffffffffffffffffffff1602179055505050565b60006107d09050610e188282611106565b919050565b60046020528060005260406000206000915090505481565b60018054600181600116156101000203166002900480601f016020809104026020016040519081016040528092919081815260200182805460018160011615610100020316600290048015610ecb5780601f10610ea057610100808354040283529160200191610ecb565b820191906000526020600020905b815481529060010190602001808311610eae57829003601f168201915b505050505081565b600081600460003373ffffffffffffffffffffffffffffffffffffffff1673ffffffffffffffffffffffffffffffffffffffff168152602001908152602001600020541015610f8a576040517f08c379a00000000000000000000000000000000000000000000000000000000081526004018080602001828103825260138152602001807f45524332303a20494e53554646494349454e540000000000000000000000000081525060200191505060405180910390fd5b81600460003373ffffffffffffffffffffffffffffffffffffffff1673ffffffffffffffffffffffffffffffffffffffff1681526020019081526020016000206000828254039250508190555081600460008573ffffffffffffffffffffffffffffffffffffffff1673ffffffffffffffffffffffffffffffffffffffff168152602001908152602001600020600082825401925050819055508273ffffffffffffffffffffffffffffffffffffffff163373ffffffffffffffffffffffffffffffffffffffff167fddf252ad1be2c89b69c2b068fc378daa952ba7f163c4a11628f55a4df523b3ef846040518082815260200191505060405180910390a392915050565b6103e881565b600660009054906101000a900473ffffffffffffffffffffffffffffffffffffffff1681565b600860009054906101000a900473ffffffffffffffffffffffffffffffffffffffff1681565b6005602052816000526040600020602052806000526040600020600091509150505481565b8060036000828254019250508190555080600460008473ffffffffffffffffffffffffffffffffffffffff1673ffffffffffffffffffffffffffffffffffffffff16815260200190815260200160002060008282540192505081905550505056fea265627a7a723158203b7a011465a709d98d431c3833a87456bf1a69f1454156fd620d51f37eb34e2164736f6c63430005100032",
  "source": "// SPDX-License-Identifier: MIT\r\npragma solidity =0.5.16;\r\n\r\nimport './PockyERC20.sol';\r\nimport './Token.sol';\r\nimport './libraries/Math.sol';\r\n\r\n/* fields: \r\n  1. 工厂合约\r\n  2. 代币0地址\r\n  3. 代币1地址\r\n  4. 代币0储备量\r\n  5. 代币1储备量\r\n  6. 交易区块时间记录\r\n  7. 最小流动性\r\n\r\n  methods\r\n  1. getReserves(): uint256\r\n  2. mint()\r\n  3. burn()\r\n  4. swap()\r\n  5. skim()\r\n  6. sync()\r\n*/\r\n\r\ncontract PockyPair is PockyERC20 {\r\n\r\n  // 最小流动性 提高攻击成本\r\n  uint public constant MINIMUM_LIQUIDITY = 10**3;\r\n\r\n  address public factory;\r\n  address public token0;\r\n  address public token1;\r\n\r\n  uint112 private reserve0;\r\n  uint112 private reserve1;\r\n  uint32  private blockTimestampLast;\r\n\r\n  function getReserves() public view returns(\r\n    uint112 _reserve0, \r\n    uint112 _reserve1, \r\n    uint32 _blockTimestampLast\r\n  ) \r\n  {\r\n    _reserve0 = reserve0;\r\n    _reserve1 = reserve1;\r\n    _blockTimestampLast = blockTimestampLast;\r\n  }\r\n\r\n  constructor() public {\r\n    factory = msg.sender;\r\n  }\r\n\r\n  function initialize(address _token0, address _token1) external {\r\n    // require((token0 == token1), \"PAIR: THE_SAMEADDRESS\");\r\n    require(msg.sender == factory, 'PAIR: FORBIDDEN'); // sufficient check\r\n    token0 = _token0;\r\n    token1 = _token1;\r\n  }\r\n\r\n  // 更新储备量\r\n  function _update(uint balance0, uint balance1) private {\r\n    reserve0 = uint112(balance0);\r\n    reserve1 = uint112(balance1);\r\n  }\r\n\r\n  function mint(address to) external returns (uint liquidity){\r\n    //1. 获取储备量\r\n    //2. 获取Pair合约中两种代币的balance\r\n    //3. balance - reserve = 新添加的代币数额amount\r\n    //4. 计算流动性  当前pair的totalSupply=0,\r\n        //(1) 流动性 = 根号(amount0 * amount1) - 最小流动性\r\n        //(2) 把最小流动性打入地址0\r\n        //          当前pair的totalSupply!=0,\r\n        //(1) 流动性 = min((amount0 * totalSupply / reserve0), \r\n                      //   (amount0 * totalSupply / reserve1))\r\n    //5. 判断流动性不等于0\r\n    //6. 调用ERC20的_mint()函数\r\n    //7. 更新数据\r\n    //8. 发送Mint事件\r\n    // (uint112 _reserve0, uint112 _reserve1, ) = getReserves();\r\n    // uint256 balance0 = Token(token0).totalSupply();\r\n    // uint256 balance1 = Token(token1).totalSupply();\r\n    // uint256 amount0 = balance0 - uint256(_reserve0);\r\n    // uint256 amount1 = balance1 - uint256(_reserve1);\r\n\r\n    // if(totalSupply == 0){\r\n    //   liquidity = Math.sqrt(amount0 * amount1) - MINIMUM_LIQUIDITY;\r\n    //   _mint(address(0),MINIMUM_LIQUIDITY);\r\n    // }\r\n    // else {\r\n    //   liquidity = Math.min((amount0 * totalSupply / _reserve0), \r\n    //                ((amount0 * totalSupply / reserve1)));\r\n    // }\r\n\r\n    liquidity = 2000;\r\n\r\n    // require(liquidity > 0, \"PAIR: INSUFFICIENT_LIQUIDITY_MINTED\");\r\n    _mint(to, liquidity);\r\n    // _update(balance0, balance1);\r\n\r\n\r\n  }\r\n\r\n  \r\n}",
  "sourcePath": "E:\\code\\myuni\\src\\contracts\\PockyPair.sol",
  "compiler": {
    "name": "solc",
    "version": "0.5.16+commit.9c3226ce.Emscripten.clang"
  },
  "schemaVersion": "3.2.3",
  "updatedAt": "2022-01-08T08:36:15.667Z",
  "devdoc": {
    "methods": {}
  },
  "userdoc": {
    "methods": {}
  }
}